:020000040000FA
:020000000528D1
:040002000034003492
:08000800422883160B168B172A
:100010008B100117FF3086000830850083120030F6
:10002000860000308500073085005A2000308500AA
:1000300062208A201C201A28831600308500831233
:100040000830850000309000831608308500831248
:10005000051A282817308F008F0B2F283D281030C5
:100060008500900D003085008519900A10088600E3
:100070008A20003086008A202C281030850000302D
:100080008500080009008C0B43288D0B43288E0B3C
:100090004328080095308C0003308D0001308E001D
:1000A0004320080001308C0001308D0003308E00A9
:1000B00043200800EE308C0002308D0001308E00AD
:1000C00043200800A1308C0001308D0001308E00EB
:1000D00043200800B7308C0002308D0001308E00C4
:1000E00043200800D9308C0001308D0001308E0093
:1000F0004320080025308C0003308D0001308E0035
:10010000432008006A308C0001308D0001308E00E1
:10011000432008008E308C0013308D0006308E0096
:06012000432008009228B4
:00000001FF
