:020000040000FA
:020000000528D1
:040002000034003492
:080008002C2883160B168B1740
:100010008B100117FF3086000030850083120030FE
:1000200086000030850007308500442000308500C0
:100030004C2074201A28831600308500831210305B
:1000400085008316103085008312051A2528083094
:10005000850000308500080009008C0B2D288D0BD1
:100060002D288E0B2D28080095308C0003308D0034
:1000700001308E002D20080001308C0001308D00F1
:1000800003308E002D200800EE308C0002308D00F1
:1000900001308E002D200800A1308C0001308D0031
:1000A00001308E002D200800B7308C0002308D000A
:1000B00001308E002D200800D9308C0001308D00D9
:1000C00001308E002D20080025308C0003308D007B
:1000D00001308E002D2008006A308C0001308D0028
:1000E00001308E002D2008008E308C0013308D00E2
:0A00F00006308E002D2008007C2849
:00000001FF
