:020000040000FA
:020000000528D1
:040002000034003492
:08000800312883160B168B173B
:100010008B100117FF3086000030850083120030FE
:10002000860000308500043085006920003085009E
:10003000712079200430850049200030850051204E
:100040007920043085005920003085006120792016
:100050000430850049200030850051207920132884
:10006000080009008C0B32288D0B32288E0B3228A9
:10007000080095308C0003308D0001308E00322056
:10008000080001308C0001308D0003308E003220DA
:100090000800EE308C0002308D0001308E003220DE
:1000A0000800A1308C0001308D0001308E0032201C
:1000B0000800B7308C0002308D0001308E003220F5
:1000C0000800D9308C0001308D0001308E003220C4
:1000D000080025308C0003308D0001308E00322066
:1000E00008006A308C0001308D0001308E00322013
:1000F00008008E308C0013308D0006308E003220C8
:04010000080081284A
:00000001FF
