:020000040000FA
:020000000528D1
:040002000034003492
:08000800592883160B168B1317
:100010008B1001130130860000308500831294019B
:10002000073085009320003085009B201720452055
:100030008515CB20100895002C20C32011089500B1
:100040002C20C320120895002C20C32000309500DE
:100050002C20C320851117280512151805168610A7
:100060009518861406111519061586119519861509
:100070000612151A06168612951A86160613151BF1
:1000800006178613951B8617080083168B138B1093
:10009000831219308F009001910192010030850088
:1000A00001308600141083168B178312141C5628F7
:1000B000080083168B1383128F0B6F2814140830DB
:1000C000850000001008803A90001108003A910065
:1000D0001208003A92000030850000000800920DDE
:1000E000910D900D12100830850000000030850041
:1000F0000000061812145C288C0B7C288D0B7C28C1
:100100008E0B7C28080095308C0003308D00013068
:100110008E007C20080001308C0001308D000330FF
:100120008E007C200800EE308C0002308D00013003
:100130008E007C200800A1308C0001308D00013041
:100140008E007C200800B7308C0002308D0001301A
:100150008E007C200800D9308C0001308D000130E9
:100160008E007C20080025308C0003308D0001308B
:100170008E007C2008006A308C0001308D00013038
:100180008E007C2008008E308C0013308D000630ED
:100190008E007C2008001C308C0001308D00013066
:0801A0008E007C200800D3282A
:00000001FF
