:020000040000FA
:020000000528D1
:040002000034003492
:080008003B2883160B168B1335
:100010008B10011301308600003085008312960199
:100020009701003086000030850007308500DC2015
:1000300000308500E4201C202C2085151421542834
:100040000515DC200511E4200C218514DC20851029
:10005000E4200C2185111C2883168B138B1083122E
:1000600019308F0085110614161083168B17831212
:10007000161C3828080083168B1383128F0B49280F
:100080001614851500001008803A900085110000B4
:100090000800920D910D900D12108515000085112C
:1000A0000000061812143E2800309500A03094007D
:1000B0007D3093008420031D602801309800912832
:1000C00000309500803094007B3093008420031D25
:1000D0006C28023098009128003095002030940060
:1000E0007B3093008420031D7828053098009128E8
:1000F00000309500A03094007A3093008420031DD6
:1001000020280A309800912896011008130203193C
:1001100016151108E0391402031996141608063C46
:1001200008000514CC200510D4200C210514DC2077
:100130000510E4200C21180897073C2119089A00A3
:100140001C210C211808013C0319BA281808053C89
:100150000319BA281808013C0319C02818080A3CDA
:100160000319C0281808023C0319C6281808053CC2
:100170000319C6288514CC208510D4200C21AA2868
:100180000515FC20051104210C2120280515EC2063
:100190000511F4200C21202894308C0003308D00B0
:1001A00001308E003521080001308C0001308D00B7
:1001B00003308E0035210800ED308C0002308D00B8
:1001C00001308E0035210800A0308C0001308D00F8
:1001D00001308E0035210800B5308C0002308D00D2
:1001E00001308E0035210800D9308C0001308D009F
:1001F00001308E003521080024308C0003308D0042
:1002000001308E003521080069308C0001308D00EE
:1002100001308E003521080048308C008A308D0076
:1002200003308E00352108001C308C0001308D0019
:1002300001308E003521080005121A1805168610A7
:100240009A18861406111A19061586119A19861518
:1002500006121A1A061686129A1A861606131A1B00
:10026000061786139A1B861708008C0B35298D0BF1
:1002700035298E0B3529080008308C0017088D00B1
:1002800099018D0D990D8C0B46294E290F301905BA
:0E029000043C1908031C033E99004129080094
:00000001FF
