:020000040000FA
:020000000528D1
:040002000034003492
:080008005D2883160B168B170F
:100010008B1001130130860000308500831294019B
:10002000073085009D2000308500A5201720452041
:100030008515D520100895002C20CD20110895009D
:100040002C20CD20120895002C20CD2000309500CA
:100050002C20CD208511172805121518051686109D
:100060009518861406111519061586119519861509
:100070000612151A06168612951A86160613151BF1
:1000800006178613951B8617080083168B178B108F
:10009000831219308F000030900000309100003042
:1000A0009200831200308500013086001410831600
:1000B0008B178312141C5A28080083168B13831283
:1000C0008F0B732814140830850000001008803A44
:1000D00090001108003A91001208003A9200003096
:1000E000850000000800900D1010910D03181014E9
:1000F000920D111003181114121008308500000021
:100100000030850000000618121460288C0B862829
:100110008D0B86288E0B8628080095308C000330C6
:100120008D0001308E008620080001308C000130E7
:100130008D0003308E0086200800EE308C000230E7
:100140008D0001308E0086200800A1308C00013027
:100150008D0001308E0086200800B7308C00023000
:100160008D0001308E0086200800D9308C000130CF
:100170008D0001308E008620080025308C00033071
:100180008D0001308E00862008006A308C0001301E
:100190008D0001308E00862008008E308C001330D8
:1001A0008D0006308E00862008001C308C00013047
:0C01B0008D0001308E0086200800DD2844
:00000001FF
